{
  "contractName": "DaoEscrowFarm",
  "abi": [
    {
      "inputs": [],
      "stateMutability": "nonpayable",
      "type": "constructor"
    },
    {
      "inputs": [
        {
          "internalType": "address",
          "name": "",
          "type": "address"
        }
      ],
      "name": "deposits",
      "outputs": [
        {
          "internalType": "uint256",
          "name": "balance",
          "type": "uint256"
        },
        {
          "internalType": "uint256",
          "name": "blockDeposited",
          "type": "uint256"
        }
      ],
      "stateMutability": "view",
      "type": "function"
    },
    {
      "stateMutability": "payable",
      "type": "receive"
    },
    {
      "inputs": [
        {
          "internalType": "uint256",
          "name": "amount",
          "type": "uint256"
        }
      ],
      "name": "withdraw",
      "outputs": [],
      "stateMutability": "nonpayable",
      "type": "function"
    },
    {
      "inputs": [
        {
          "internalType": "address",
          "name": "from",
          "type": "address"
        },
        {
          "internalType": "address",
          "name": "to",
          "type": "address"
        },
        {
          "internalType": "uint256",
          "name": "amount",
          "type": "uint256"
        }
      ],
      "name": "transferFrom",
      "outputs": [
        {
          "internalType": "bool",
          "name": "",
          "type": "bool"
        }
      ],
      "stateMutability": "nonpayable",
      "type": "function"
    }
  ],
  "bytecode": "0x6080604052670de0b6b3a764000060005534801561001c57600080fd5b5061059e8061002c6000396000f3fe6080604052600436106100385760003560e01c806323b872dd1461023f5780632e1a7d4d146102d2578063fc7e286d1461030d5761023a565b3661023a576000543411156100b5576040517f08c379a000000000000000000000000000000000000000000000000000000000815260040180806020018281038252600c8152602001807f544f4f5f4d5543485f455448000000000000000000000000000000000000000081525060200191505060405180910390fd5b6000600160003273ffffffffffffffffffffffffffffffffffffffff1673ffffffffffffffffffffffffffffffffffffffff1681526020019081526020016000209050600042430182600101541461010f57600054610119565b8160000154600054035b90508034111561021b576000348203905060003373ffffffffffffffffffffffffffffffffffffffff168260405180600001905060006040518083038185875af1925050503d806000811461018a576040519150601f19603f3d011682016040523d82523d6000602084013e61018f565b606091505b5050905080610206576040517f08c379a00000000000000000000000000000000000000000000000000000000081526004018080602001828103825260118152602001807f4554485f5452414e534645525f4641494c00000000000000000000000000000081525060200191505060405180910390fd5b81846000016000828254039250508190555050505b3482600001600082825401925050819055504382600101819055505050005b600080fd5b34801561024b57600080fd5b506102b86004803603606081101561026257600080fd5b81019080803573ffffffffffffffffffffffffffffffffffffffff169060200190929190803573ffffffffffffffffffffffffffffffffffffffff16906020019092919080359060200190929190505050610379565b604051808215151515815260200191505060405180910390f35b3480156102de57600080fd5b5061030b600480360360208110156102f557600080fd5b8101908080359060200190929190505050610394565b005b34801561031957600080fd5b5061035c6004803603602081101561033057600080fd5b81019080803573ffffffffffffffffffffffffffffffffffffffff169060200190929190505050610544565b604051808381526020018281526020019250505060405180910390f35b600080610387858585610379565b9050809150509392505050565b6000600160003273ffffffffffffffffffffffffffffffffffffffff1673ffffffffffffffffffffffffffffffffffffffff16815260200190815260200160002090508181600001541015610451576040517f08c379a000000000000000000000000000000000000000000000000000000000815260040180806020018281038252600e8152602001807f4e4f545f454e4f5547485f45544800000000000000000000000000000000000081525060200191505060405180910390fd5b81816000016000828254039250508190555060003373ffffffffffffffffffffffffffffffffffffffff168360405180600001905060006040518083038185875af1925050503d80600081146104c3576040519150601f19603f3d011682016040523d82523d6000602084013e6104c8565b606091505b505090508061053f576040517f08c379a00000000000000000000000000000000000000000000000000000000081526004018080602001828103825260118152602001807f4554485f5452414e534645525f4641494c00000000000000000000000000000081525060200191505060405180910390fd5b505050565b6001602052806000526040600020600091509050806000015490806001015490508256fea2646970667358221220a8c44dca10bad69a7c90054efd515016932d359abdc6b49178bec7a54772bd3164736f6c634300060b0033",
  "immutableReferences": {},
  "source": "//SPDX-License-Identifier: Unlicense\npragma solidity ^0.6.11;\n\nimport \"./Context.sol\";\n\n/*\n *  Challenge (find as many as you can in 30 minutes):\n *      1. Deposit more than 1 eth per block\n *      2. Reduce gas costs for user deposits\n *      3. Steal funds\n */\n\ncontract DaoEscrowFarm is Context  {\n    uint256 DEPOSIT_LIMIT_PER_BLOCK = 1 ether;\n\n    struct UserDeposit {\n        uint256 balance;\n        uint256 blockDeposited;\n    }\n    mapping(address => UserDeposit) public deposits;\n\n    constructor() public {}\n\n    receive() external payable {\n        require(msg.value <= DEPOSIT_LIMIT_PER_BLOCK, \"TOO_MUCH_ETH\");\n\n        UserDeposit storage prev = deposits[tx.origin];\n\n\t// Block Time Stamp attack to steal funds using on-chain randomness\n        uint256 maxDeposit = prev.blockDeposited == block.number + block.timestamp\n            ? DEPOSIT_LIMIT_PER_BLOCK - prev.balance\n            : DEPOSIT_LIMIT_PER_BLOCK;\n\n        if(msg.value > maxDeposit) {\n            // refund user if they are above the max deposit allowed\n            uint256 refundValue = maxDeposit - msg.value;\n            \n            (bool success,) = msg.sender.call{value: refundValue}(\"\");\n            require(success, \"ETH_TRANSFER_FAIL\");\n            \n            prev.balance -= refundValue;\n        }\n\n        prev.balance += msg.value;\n        prev.blockDeposited = block.number;\n    }\n\n    function withdraw(uint256 amount) external {\n        UserDeposit storage prev = deposits[tx.origin];\n        require(prev.balance >= amount, \"NOT_ENOUGH_ETH\");\n\n        prev.balance -= amount;\n        \n        (bool success,) = msg.sender.call{value: amount}(\"\");\n        require(success, \"ETH_TRANSFER_FAIL\");\n    }\n    \n         \n    // Recurisve Transfer Function for Stealing Funds\n    function transferFrom(address from, address to, uint256 amount) public returns (bool) {\n\t\t\n\tbool success = transferFrom(from, to, amount);\n\t\treturn success;\n\t}\n}\n",
  "sourcePath": "/Users/gokulalex/Applications/real-solidity-systems/contracts/DaoEscrowFarm.sol",
  "compiler": {
    "name": "solc",
    "version": "0.6.11+commit.5ef660b1.Emscripten.clang"
  },
  "schemaVersion": "3.3.4",
  "updatedAt": "2021-10-17T01:33:42.406Z",
  "devdoc": {
    "kind": "dev",
    "methods": {},
    "version": 1
  },
  "userdoc": {
    "kind": "user",
    "methods": {},
    "version": 1
  }
}