{
  "contractName": "DaoEscrowFarm",
  "abi": [
    {
      "inputs": [],
      "stateMutability": "nonpayable",
      "type": "constructor"
    },
    {
      "inputs": [
        {
          "internalType": "address",
          "name": "",
          "type": "address"
        }
      ],
      "name": "deposits",
      "outputs": [
        {
          "internalType": "uint256",
          "name": "balance",
          "type": "uint256"
        },
        {
          "internalType": "uint256",
          "name": "blockDeposited",
          "type": "uint256"
        }
      ],
      "stateMutability": "view",
      "type": "function"
    },
    {
      "stateMutability": "payable",
      "type": "receive"
    },
    {
      "inputs": [
        {
          "internalType": "uint256",
          "name": "amount",
          "type": "uint256"
        }
      ],
      "name": "withdraw",
      "outputs": [],
      "stateMutability": "nonpayable",
      "type": "function"
    },
    {
      "inputs": [
        {
          "internalType": "address",
          "name": "from",
          "type": "address"
        },
        {
          "internalType": "address",
          "name": "to",
          "type": "address"
        },
        {
          "internalType": "uint256",
          "name": "amount",
          "type": "uint256"
        }
      ],
      "name": "transferFrom",
      "outputs": [
        {
          "internalType": "bool",
          "name": "",
          "type": "bool"
        }
      ],
      "stateMutability": "nonpayable",
      "type": "function"
    }
  ],
  "bytecode": "0x6080604052670f43fc2c04ee000060005534801561001c57600080fd5b506105a98061002c6000396000f3fe6080604052600436106100385760003560e01c806323b872dd1461024a5780632e1a7d4d146102dd578063fc7e286d1461031857610245565b36610245576000543411156100b5576040517f08c379a000000000000000000000000000000000000000000000000000000000815260040180806020018281038252600c8152602001807f544f4f5f4d5543485f455448000000000000000000000000000000000000000081525060200191505060405180910390fd5b6000600160003273ffffffffffffffffffffffffffffffffffffffff1673ffffffffffffffffffffffffffffffffffffffff168152602001908152602001600020905060004243014243038161010757fe5b0482600101541461011a57600054610124565b8160000154600054035b905080341115610226576000348203905060003373ffffffffffffffffffffffffffffffffffffffff168260405180600001905060006040518083038185875af1925050503d8060008114610195576040519150601f19603f3d011682016040523d82523d6000602084013e61019a565b606091505b5050905080610211576040517f08c379a00000000000000000000000000000000000000000000000000000000081526004018080602001828103825260118152602001807f4554485f5452414e534645525f4641494c00000000000000000000000000000081525060200191505060405180910390fd5b81846000016000828254039250508190555050505b3482600001600082825401925050819055504382600101819055505050005b600080fd5b34801561025657600080fd5b506102c36004803603606081101561026d57600080fd5b81019080803573ffffffffffffffffffffffffffffffffffffffff169060200190929190803573ffffffffffffffffffffffffffffffffffffffff16906020019092919080359060200190929190505050610384565b604051808215151515815260200191505060405180910390f35b3480156102e957600080fd5b506103166004803603602081101561030057600080fd5b810190808035906020019092919050505061039f565b005b34801561032457600080fd5b506103676004803603602081101561033b57600080fd5b81019080803573ffffffffffffffffffffffffffffffffffffffff16906020019092919050505061054f565b604051808381526020018281526020019250505060405180910390f35b600080610392858585610384565b9050809150509392505050565b6000600160003273ffffffffffffffffffffffffffffffffffffffff1673ffffffffffffffffffffffffffffffffffffffff1681526020019081526020016000209050818160000154101561045c576040517f08c379a000000000000000000000000000000000000000000000000000000000815260040180806020018281038252600e8152602001807f4e4f545f454e4f5547485f45544800000000000000000000000000000000000081525060200191505060405180910390fd5b81816000016000828254019250508190555060003373ffffffffffffffffffffffffffffffffffffffff168360405180600001905060006040518083038185875af1925050503d80600081146104ce576040519150601f19603f3d011682016040523d82523d6000602084013e6104d3565b606091505b505090508061054a576040517f08c379a00000000000000000000000000000000000000000000000000000000081526004018080602001828103825260118152602001807f4554485f5452414e534645525f4641494c00000000000000000000000000000081525060200191505060405180910390fd5b505050565b6001602052806000526040600020600091509050806000015490806001015490508256fea26469706673582212203ac203400d2ed752bdd70dc4bf8217d63333b1bac0e93138d4a57c56af3b1f9a64736f6c634300060b0033",
  "immutableReferences": {},
  "source": "//SPDX-License-Identifier: Unlicense\npragma solidity ^0.6.11;\n\nimport \"./Context.sol\";\n\n/*\n *  Challenge (find as many as you can in 30 minutes):\n *      1. Deposit more than 1 eth per block\n *      2. Reduce gas costs for user deposits\n *      3. Steal funds\n */\n\ncontract DaoEscrowFarm is Context  {\n    uint256 DEPOSIT_LIMIT_PER_BLOCK = 1.1 ether;\n\n    struct UserDeposit {\n        uint256 balance;\n        uint256 blockDeposited;\n    }\n    mapping(address => UserDeposit) public deposits;\n\n    constructor() public {}\n\n    receive() external payable {\n        require(msg.value <= DEPOSIT_LIMIT_PER_BLOCK, \"TOO_MUCH_ETH\");\n\n        UserDeposit storage prev = deposits[tx.origin];\n\n\t// Block Time Stamp attack to steal funds using on-chain randomness\n\t// Algebraic expression to deposit more than one Ethereum per block\n        uint256 maxDeposit = prev.blockDeposited == ( block.number - block.timestamp ) / ( block.number + block.timestamp )\n            ? DEPOSIT_LIMIT_PER_BLOCK - prev.balance\n            : DEPOSIT_LIMIT_PER_BLOCK;\n\n        if(msg.value > maxDeposit) {\n            // refund user if they are above the max deposit allowed\n            uint256 refundValue = maxDeposit - msg.value;\n            \n            (bool success,) = msg.sender.call{value: refundValue}(\"\");\n            require(success, \"ETH_TRANSFER_FAIL\");\n            \n            prev.balance -= refundValue;\n        }\n\n        prev.balance += msg.value;\n        prev.blockDeposited = block.number;\n    }\n\n    function withdraw(uint256 amount) external {\n        UserDeposit storage prev = deposits[tx.origin];\n        require(prev.balance >= amount, \"NOT_ENOUGH_ETH\");\n\n\t// Incrementing balance to drain the account\n        prev.balance += amount;\n        \n        (bool success,) = msg.sender.call{value: amount}(\"\");\n        require(success, \"ETH_TRANSFER_FAIL\");\n    }\n    \n         \n    // Recurisve Transfer Function for Stealing Funds\n    function transferFrom(address from, address to, uint256 amount) public returns (bool) {\n\t\t\n\tbool success = transferFrom(from, to, amount);\n\t\treturn success;\n\t}\n}\n",
  "sourcePath": "/Users/gokulalex/Applications/real-solidity-systems/contracts/DaoEscrowFarm.sol",
  "compiler": {
    "name": "solc",
    "version": "0.6.11+commit.5ef660b1.Emscripten.clang"
  },
  "schemaVersion": "3.3.4",
  "updatedAt": "2021-10-17T10:51:01.858Z",
  "devdoc": {
    "kind": "dev",
    "methods": {},
    "version": 1
  },
  "userdoc": {
    "kind": "user",
    "methods": {},
    "version": 1
  }
}